:100000000C9434000C943E000C943E000C943E0082
:100010000C943E000C943E000C943E000C943E0068
:100020000C943E000C943E000C943E000C943E0058
:100030000C943E000C943E000C943E000C943E0048
:100040000C943E000C943E000C943E000C943E0038
:100050000C943E000C943E000C943E000C943E0028
:100060000C943E000C943E0011241FBECFEFD8E04C
:10007000DEBFCDBF0E9440000C945E000C940000D7
:1000800080E88AB98BB981E090E030E82FEF43ED4A
:1000900050E3215040405040E1F700C000002AB139
:1000A00026952AB92BB126952BB98430910524F0D9
:1000B0003AB93BB980E090E00196E8CFF894FFCFE1
:00000001FF
